:020000040800F2
:100000005015002001010008B5770008154D0008C3
:1000100015740008E50C0008899500080000000030
:10002000000000000000000000000000D58600086D
:10003000790D0008000000007D820008B9880008E2
:100040001B0100081B0100081B0100081B01000820
:100050001B0100081B0100081B0100081B01000810
:100060001B0100081B0100081B0100081B01000800
:100070001B0100081B010008E90C0008F90C00082E
:10008000090D0008190D00081B0100081B010008DC
:100090001B0100081B0100081B0100089112000849
:1000A0001B0100081B0100081B0100081B010008C0
:1000B00031890008418900081B010008194D00081A
:1000C0001B0100081B0100081B0100081B010008A0
:1000D0001B0100081D9500081B0100081B010008FA
:1000E0000D0E00081B0100081B010008DFF80CD0F2
:1000F00000F044FD0048004771B200085015002090
:100100000648804706480047FEE7FEE7FEE7FEE7B1
:10011000FEE7FEE7FEE7FEE7FEE7FEE72D890008C3
:10012000ED0000082DE9F0410024061B254671F181
:10013000000605DA01240027D0EB070067EB010178
:10014000161E73F1000605DA0027D2EB070201251F
:1001500067EB030300F0BDFB86460E4617469C4640
:10016000AC4204D00025D0EB050E65EB010624B1AE
:100170000020D2EB000760EB030C704631463A4694
:100180006346BDE8F081002800DA40427047D2B2F1
:1001900001E000F8012B491EFBD270470022F6E770
:1001A00010B513460A4604461946FFF7F0FF2046ED
:1001B00010BD30B504460020034600E05B1C9342AE
:1001C00003D2E05CCD5C401BF8D030BDF0B480EAD7
:1001D0000102D40F4200B2EB410F02D202460846A0
:1001E00011464A0042D0C30DDDB2C1F3C752AD1A69
:1001F000202D35DAC1F3160141F4000204B1524258
:10020000C5F1200602FA06F12A411044B3EBD05F93
:1002100023D0C4B1012DA0EBC35009DCF0BC4FF0DA
:10022000004202EAC352DBB200F5000000F0BCBBA2
:10023000400000F1807000EBC350A0F1807040EAF4
:10024000D170490009E0490841EAC071A0EBC350F0
:1002500000F50000400800EBC350F0BC00F09BBB71
:100260006142012202EB4101001BF6E7F0BC70473E
:1002700081F00041AAE780F00040A7E780EA010290
:1002800010B502F00043400022D04A001FD0010EFA
:1002900001EB1261C0F35600C2F3560240F40000B5
:1002A00042F40002A0FB022000047F39140400D0B5
:1002B000401C50EA124001D44000491EC2B20C0654
:1002C00004EBD010401C4008802A02D003E000203C
:1002D00010BD20F00100002900DA0020184310BDF5
:1002E00030B480EA010202F0004530F0004221F013
:1002F000004013D090B1C30DD40DC2F31601C0F36A
:100300001600E41A41F4000140F400027D349142E9
:1003100001D3641C00E04900002C02DA30BC00204C
:1003200070474FF400000023914201D3891A034320
:1003300040084FEA4101F7D151B1914202D14FF04B
:10034000004105E002D24FF0010101E06FF0010130
:1003500003EBC450284430BC00F01DBB2DE9FE4F18
:10036000804681EA0300C00F0C46009021F0004156
:1003700023F00045B8EB0200A94105D240462146D2
:1003800090461C460B46024623F00040104347D0DF
:10039000270DC7F30A00C3F30A510290401A0190D7
:1003A00040286BDAC3F3130040F4801B0098924698
:1003B00020B10023D2EB030A63EB0B0B01985946E3
:1003C000C0F14002504600F0B5FA06460D465046D0
:1003D0005946019A00F0CDFA10EB08006141002463
:1003E00087EA115284EAE7731A4340D0009A62B355
:1003F000019A012A4FEA075215DC001B61EB02014A
:100400004FF0004202EA0752CDE90042001C41F5DC
:10041000801132462B4600F004FB03B0BDE8F08F9C
:1004200040462146F9E7001B61EB0201001C41F543
:10043000801300185B412018A2F5001747EB030159
:1004400040EAD570B6196D4111E06D084FEA3606E5
:1004500045EAC0754FEA0752001B61EB0201001C20
:1004600041F5801149084FEA3000001951413246E8
:100470002B4603B0BDE8F04F00F0C4BA009801224B
:1004800040000023D0EB020263EBE07300982146AA
:100490004FEAE074B8EB000061EB0401E9E783F098
:1004A00000435BE781F0004158E72DE9FE4F81EA08
:1004B000030404F0004421F0004100944FF0000BCD
:1004C00023F0004350EA01045ED052EA03045BD0FB
:1004D000C3F30A54C1F30A552C44A4F2F334019433
:1004E000A0FB0254C1F3130141F48011C3F31303C1
:1004F00043F4801301FB024400FB034E840A970A75
:1005000044EA815447EA8357A4FB076802958D0AA1
:1005100005FB07854FEA932C04FB0C542705029D2D
:100520004FEA065847EA1637B5EB08056EEB070C9D
:10053000870E920E47EA811742EA8312A7FB020157
:10054000B6EB0B0164EB00042B0D43EA0C335E1891
:1005500044EB1C50DA465146E7FB0201C5F3130495
:100560004FEA0B3343EA14534FEA0432019C43EA47
:100570000603A4F10C040294009CCDE900B400F041
:1005800050FA03B0BDE8F08F00200146F9E72DE9ED
:10059000F04D81EA030404F0004B21F000451446BD
:1005A0004FF0000A23F0004150EA050220D054EA3F
:1005B00001021DD0C5F30A570246C5F31303C1F368
:1005C0001300C1F30A5640F4801543F48013A7EBDF
:1005D0000608101BD64608F2FD3873EB050002D35F
:1005E00008F1010801E092185B41B8F1000F03DA4D
:1005F00000200146BDE8F08D00204FF48011064632
:1006000084460EE0171B73EB050705D3121B63EB43
:10061000050306434CEA010C49084FEA30009218E2
:100620005B4150EA0107EDD152EA030012D082EAA1
:10063000040083EA0501084305D0101BAB4106D234
:100640000122002306E000224FF0004302E06FF099
:10065000010253101AEB06004CEB085110EB0A0094
:1006600041EB0B01BDE8F04D00F0CCB9002801DBF7
:10067000C0F10040002901DBC1F10041814201D8F5
:100680000120704700207047002801DBC0F10040C6
:10069000002901DBC1F10041814201D201207047F4
:1006A00000207047002801DBC0F10040002901DB79
:1006B000C1F10041814201D3012070470020704701
:1006C000002801DBC0F10040002901DBC1F100413D
:1006D000814201D90120704700207047002801DBCA
:1006E000C0F10040002901DBC1F10041814201D18C
:1006F000012070470020704730B5041E71F10004DE
:1007000004DB4FF00044404264EB0101141E73F11E
:10071000000405DB1C464FF00043524263EB040328
:10072000801A994101D3012030BD002030BD30B581
:10073000041E71F1000404DB4FF00044404264EBFE
:100740000101141E73F1000405DB1C464FF0004349
:10075000524263EB0403101A8B4101D2012030BDD9
:10076000002030BD30B5041E71F1000404DB4FF0F1
:100770000044404264EB0101141E73F1000405DBE8
:100780001C464FF00043524263EB0403101A8B41A6
:1007900001D3012030BD002030BDC10F80EAE070E0
:1007A0000844CA079623002100F0FEB896230022D1
:1007B000114600F0F9B80EB5C10F80EAE0700844A8
:1007C000CA07002140F233438DE80E000A460B466B
:1007D00000F027F903B000BD00F0004220F0004017
:1007E000C10DC0F3160040F400007F2901DA00209B
:1007F0007047962903DCC1F19601C84001E09639A3
:100800008840002AF4D04042704770B5C1F30A52C4
:1008100001F000450024C1F3130140F2FF3341F41D
:1008200080119A4201DA002070BD40F233439A42AF
:10083000A2F2334203DC524200F08BF800E0904019
:100840002C43F1D0404270BD00F0004230F0004037
:100850000AD0C10D01F56071C0F3160042EA0151E2
:10086000C20840071143704700200146704701F05D
:10087000004330B421F0004150EA010206D00A0DD5
:10088000A2F56072C1F31301002A02DC30BC002023
:100890007047440F44EAC104C100E01830BC00EBCB
:1008A000C25000F078B830B50B4601460020202237
:1008B000012409E021FA02F59D4205D303FA02F56D
:1008C000491B04FA02F52844151EA2F10102F1DCCD
:1008D00030BD2DE9F05F0546002092469B468846D4
:1008E0000646814640241BE02846414647462246AC
:1008F00000F02FF853465A46C01A914110D31146C2
:100900001846224600F016F82D1A67EB01084F46EC
:1009100022460120002100F00DF817EB00094E419E
:10092000201EA4F10104DFDC484631462A46434636
:10093000BDE8F09F202A04DB203A00FA02F10020F3
:1009400070479140C2F1200320FA03F3194390400D
:100950007047202A04DB203A21FA02F00021704778
:1009600021FA02F3D040C2F1200291400843194617
:100970007047202A06DBCB17203A41FA02F043EAFF
:10098000E07306E041FA02F3D040C2F12002914048
:100990000843194670470029A8BF7047401C49000A
:1009A00008BF20F00100704710B4B0FA80FC00FAD4
:1009B0000CF050EA010404BF10BC704749B1CCF1FF
:1009C000200421FA04F411FA0CF118BF012121438B
:1009D0000843A3EB0C01CB1D4FEA00614FEA102046
:1009E00042BF002010BC704700EBC35010440029E8
:1009F000A4BF10BC7047401C490008BF20F0010094
:100A000010BC704710B5141E73F1000408DA401CC6
:100A100041F1000192185B411A4301D120F001001D
:100A200010BD2DE9F04D92469B4611B1B1FA81F20D
:100A300002E0B0FA80F220329046FFF77BFF0446D6
:100A40000F4640EA0A0041EA0B0153465A46084362
:100A500013D0114653EA010019D0C8F140025046A4
:100A6000FFF777FF05460E46504659464246FFF7C8
:100A700061FF084305D0012004E020463946BDE867
:100A8000F08D0020054346EAE0762C4337430A9870
:100A90006305E40AA0EB08000022FD0A44EA47547B
:100AA0000A3002D500200146E9E701051019694125
:100AB000DDE9084500196941BDE8F04DA2E770B5D0
:100AC00021F0004303430CD0C1F30A550024D5EBB9
:100AD000040564EB0403D617AD1AB34102DB002012
:100AE000014670BD201841EB025170BDC1F30A529E
:100AF000C1F3130140F2FF3341F480119A4202DA4C
:100B000000200146704740F233439A42A2F233423A
:100B100002DC5242FFF71DBFFFF70CBF30B5041EC9
:100B200071F1000404DB4FF00044404264EB01012A
:100B3000141E73F1000405DB1C464FF000435242C3
:100B400063EB04038B4208BF824230BD30B5041E04
:100B500071F1000404DB4FF00044404264EB0101FA
:100B6000141E73F1000405DB1C464FF00043524293
:100B700063EB0403994208BF904230BD064C074D19
:100B800006E0E06840F0010394E80700984710345D
:100B9000AC42F6D3FFF7AEFA5CFF00087CFF00081A
:100BA0002DE9F04D00231A461B1A8A4103DB002071
:100BB0000146BDE8F08DC1F30A52C1F3130141F4BF
:100BC00080154FF0000BD10702D100186D41521E65
:100BD0000027044640F2FF11384601EB620A3E4608
:100BE0008046024600204FF48011FFF7B2FEC21982
:100BF0007141BB1846EB0100B4EB030C75EB000C24
:100C000004D3E41A65EB000517460E46241908F1D3
:100C100001006D4180463428E3DDF91946EB0600FA
:100C2000091BA84103D24FF0FF32134601E0002216
:100C300013461BEB070046EB0A51BDE8F04DFFF7EA
:100C4000E1BE000084B0039102900193009240F253
:100C50008041C2F2000100200860C86088600298EC
:100C6000039A4A6108610098019ACA61886104B0D8
:100C70007047000080B58CB00B910A9009930892E0
:100C80000A9A0B9880F0004040F28041C2F20001C5
:100C900007918A60C86088680190C86802900869F6
:100CA0000390486904908869C969089A099BFFF70D
:100CB000FCFB019A029B84460398CDF814C08C4635
:100CC0000499CDF818C0FFF7F0FB059A069BFFF7D3
:100CD000E6FBFFF79AFD01460798016000680CB03B
:100CE00080BD0000FFE7FEE780B540F62C60C2F251
:100CF000000000F027FC80BD80B540F6E850C2F24D
:100D0000000000F01FFC80BD80B540F6A450C2F288
:100D1000000000F017FC80BD80B540F66050C2F2C4
:100D2000000000F00FFC80BD84B00390029101929E
:100D300000930398C16B026C0120904048600098BA
:100D400003990968486003984068102809D1FFE7B3
:100D50000198039909688860029803990968C86036
:100D600008E0029803990968886001980399096866
:100D7000C860FFE704B070477047000086B0ADF868
:100D80001600002001904EF21400CEF20000006820
:100D90000090BDF8160040F65851C2F200010978E3
:100DA000484304904EF21800CEF200000068039011
:100DB000FFE74EF21800CEF20000006802900298A1
:100DC000039988421ED0FFE702980399884207D210
:100DD000FFE703980299411A01980844019008E03E
:100DE00000980299401A039901440198084401901F
:100DF000FFE70298039001980499884201D3FFE726
:100E000001E0FFE7D5E706B07047000080B59AB073
:100E100041F27000C2F2000041F2F401C2F200019E
:100E200041F24812C2F200020AF0B0FA40F2580051
:100E3000C2F200000068012818D1FFE741F27000FB
:100E4000C2F200000068FFF7FFFC1390149140F617
:100E50005A50C2F20000B0F90200FFF7ACFC0246A3
:100E600013980B461499FFF705FFFFE740F2005077
:100E7000C2F200000068012840F05B81FFE740F209
:100E80000801C2F200010868496800220023C4F288
:100E90001403FFF767FC88B9FFE740F2A841C2F2EC
:100EA00000010020CCF2080048600020086040F2F9
:100EB0006901C2F200010120087010E040F26900EF
:100EC000C2F20000007848B1FFE740F26901C2F2C7
:100ED00000010020087006F03FFCFFE7FFE740F24A
:100EE0006801C2F2000108780130087040F60C7009
:100EF000C2F200000068416A41F24010C2F20000F4
:100F0000016040F65471C2F200010968496A41F279
:100F10004412C2F200021160006847F23151884267
:100F200009DBFFE741F24011C2F200010868A0F5B9
:100F300080300860FFE741F24410C2F20000006810
:100F400047F23151884209DBFFE741F24411C2F216
:100F500000010868A0F580300860FFE741F240100A
:100F6000C2F200000168494201600068FFF723FCFB
:100F7000002212920023C4F241030B93FFF707FBF8
:100F8000129A0023C4F22A030C93FFF700FB129A73
:100F90000023C4F210030D93FFF7F9FA129A00230D
:100FA000C4F20A030E93FFF780FA129A0023C4F2E8
:100FB00069030F93FFF779FA0A4641F20011C2F272
:100FC000000110914A60086041F24410C2F2000032
:100FD0000068FFF7F0FB0B9B129AFFF7D8FA0C9B07
:100FE000129AFFF7D4FA0D9B129AFFF7D0FA0E9BD4
:100FF000129AFFF75AFA0F9B129AFFF756FA109BB4
:101000000246129811920A461199DA60996040F6E8
:101010000C71C2F200010968486240F65471C2F2D4
:10102000000109684862186859689A68DB68FFF728
:1010300095F9129A4FF08043FFF7A9FA1991189089
:10104000189A199B40F2A840C2F2000007F09AFBE0
:1010500041F26C00C2F200000088D0B3FFE718989C
:101060001999002208920023C4F26903FFF78FFA4E
:10107000089A41F23013C2F200030993D3F800C07A
:10108000CDF818C05B6807930023C4F21403FFF780
:101090000CFA069A079BFFF761F9089A0B46099923
:1010A0004B600860189819990023C4F25903FFF7A0
:1010B0006EFA02460B4640F26001C2F200010A914C
:1010C00008684968FFF74AF90A460A994A600860C1
:1010D000FFE740F26800C2F2000000784BF65002D1
:1010E000C0F21E5245F62941CCF28F2100FB0120AF
:1010F0004FEAB00045F62841C0F28F21884217D848
:10110000FFE740F26001C2F2000108684B6840F25C
:101110002052C2F200025360106000204860086054
:1011200040F26801C2F20001087007F0D5FAFFE74B
:10113000FFE740F26C00C2F200000068012840F0B6
:10114000A180FFE741F24010C2F20000006841F2C6
:101150004411C2F20001096840F65A52C2F200027C
:10116000B2F9042007F096FE179040F28040C2F2D8
:101170000000026840F2A841C2F200018B681A44E4
:10118000179B1A4416920068896808441799401AF8
:1011900015901698B0F1FF3F13DCFFE71698404218
:1011A000169040F60040C4F2010004900121059120
:1011B000002200F0B5FD0498059A022100F0B0FD70
:1011C00013E0169801280FDBFFE740F60040C4F259
:1011D000010003900122114600F0A2FD03980221B4
:1011E000002200F09DFDFFE7FFE71598B0F1FF3FFB
:1011F00012DCFFE715984042159040F60000C4F25B
:10120000010002902021002200F08AFD02981021A6
:10121000012200F085FD13E0159801280FDBFFE7A0
:1012200040F60000C4F2010001902021012200F0EC
:1012300077FD01981021002200F072FDFFE7FFE723
:10124000169841F28831884204DBFFE741F287308B
:10125000169000E0FFE7159841F28831884204DBE0
:10126000FFE741F287301590FFE7169842F63441C8
:10127000C4F201010860159842F63841C4F2010138
:101280000860FFE74FF4804000F086FB1AB080BD95
:1012900080B582B040F60040C4F20100202100F089
:1012A00027FD012813D1FFE740F27041C2F200018F
:1012B0000120087040F62401C4F2000100200860FB
:1012C00040F69C70C2F2000002F0E0FA28E040F61E
:1012D0002400C4F200000068019040F69C70C2F245
:1012E000000002F07DFB0198FFF757FA44F29631B7
:1012F000C3F60B51FEF7C2FF4FF08041FEF7F0FF3F
:10130000FFF7A2FA0A4640F20801C2F200014A6061
:10131000086040F27041C2F2000100200870FFE74F
:10132000202000F039FB02B080BD000081B0EFF357
:10133000108072B60090FFE7FEE7000083B00290D5
:1013400000200190FFE702990020012900900CDBAA
:10135000FFE7019941F2F000C2F2000002680020AC
:101360009142B8BF01200090FFE70098C00788B104
:10137000FFE7019941F27400C2F20000405C2C28A2
:1013800004D1FFE7029801380290FFE7019801308D
:101390000190D8E70198013803B0704783B00190FD
:1013A00000208DF80300019890F8210002280DD04C
:1013B000FFE7019904208863FFE70199002081F885
:1013C0002000FFE701208DF80B0021E00198016863
:1013D000086820F00E00086001980168086820F095
:1013E000010008600198C16B026C012090404860C8
:1013F000FFE70199012081F82100FFE70199002012
:1014000081F82000FFE79DF803008DF80B00FFE74F
:101410009DF80B0003B0704780B588B0079000209E
:101420008DF81B00079890F82100022807D0FFE7ED
:1014300007990420886301208DF81B0076E0079847
:101440000168086820F00E000860079801680868C5
:1014500020F001000860079800680821C4F202012A
:10146000884203D1FFE70120059047E00798006814
:101470001C21C4F20201884203D1FFE7102004902E
:1014800039E0079800683021C4F20201884204D193
:10149000FFE74FF4807003902AE00798006844212A
:1014A000C4F20201884204D1FFE74FF48050029059
:1014B0001BE0079800685821C4F20201884204D159
:1014C000FFE74FF4803001900CE0079801686C2230
:1014D000C4F202024FF08070914208BF4FF48010B6
:1014E0000190FFE701980290FFE702980390FFE761
:1014F00003980490FFE704980590FFE705980421FE
:10150000C4F2020108600799012081F82100FFE779
:101510000799002081F82000FFE70798406B20B171
:10152000FFE70798416B8847FFE7FFE79DF81B003F
:1015300008B080BD81B00090009890F8210001B003
:101540007047000080B58EB00D900D98C06B00689C
:101550000C900D98006800680B900C980D99096C20
:10156000C8404007002875D5FFE79DF82C004007CC
:1015700000286FD5FFE70D980068006880060028F6
:1015800007D4FFE70D980168086820F004000860A0
:10159000FFE70D9800680821C4F20201884203D1D8
:1015A000FFE704200A9047E00D9800681C21C4F270
:1015B0000201884203D1FFE74020099039E00D98ED
:1015C00000683021C4F20201884204D1FFE74FF4E1
:1015D000806008902AE00D9800684421C4F202015E
:1015E000884204D1FFE74FF4804007901BE00D983C
:1015F00000685821C4F20201884204D1FFE74FF489
:10160000802006900CE00D9801686C22C4F2020262
:101610004FF08060914208BF4FF480000690FFE7D2
:1016200006980790FFE707980890FFE70898099049
:10163000FFE709980A90FFE70A980421C4F2020123
:1016400008600D98C06A20B1FFE70D98C16A88470D
:10165000FFE7B8E00C980D99096CC8408007002896
:1016600040F18080FFE79DF82C008007002879D5A5
:10167000FFE70D9800680068800600280BD4FFE79C
:101680000D980168086820F00A0008600D99012093
:1016900081F82100FFE70D9800680821C4F20201DB
:1016A000884203D1FFE70220059047E00D980068CB
:1016B0001C21C4F20201884203D1FFE720200490DC
:1016C00039E00D9800683021C4F20201884204D14B
:1016D000FFE74FF4007003902AE00D980068442162
:1016E000C4F20201884204D1FFE74FF40050029097
:1016F0001BE00D9800685821C4F20201884204D111
:10170000FFE74FF4003001900CE00D9801686C2267
:10171000C4F202024FF00070914208BF4FF4001073
:101720000190FFE701980290FFE702980390FFE71E
:1017300003980490FFE704980590FFE705980421BB
:10174000C4F202010860FFE70D99002081F8200033
:10175000FFE70D98806A20B1FFE70D98816A8847FE
:10176000FFE72FE00C980D99096CC840000700288E
:1017700027D5FFE79DF82C000007002821D5FFE7BB
:101780000D980168086820F00E0008600D98C26B83
:10179000016C012000FA01F151600D9988630D99E7
:1017A00081F82100FFE70D99002081F82000FFE774
:1017B0000D98006B20B1FFE70D98016B8847FFE79C
:1017C000FFE7FFE7FFE70EB080BD000083B00190A8
:1017D00000200090019820B9FFE701208DF80B0050
:1017E00047E0019908684FF6F872CBF6FD72104495
:1017F0004CF6CD42CCF6CC42A0FB02026FF00300C7
:1018000000EA9200086401990020C4F20200C86353
:101810000199022081F82100019800680068009079
:10182000009843F6F0718843009001994868D1F818
:1018300008C0CB680A6940EA0C00184310434A69A3
:1018400010438A691043C969014300980843009016
:101850000098019909680860019900208863019A3D
:10186000012182F82110019981F820008DF80B00E8
:10187000FFE79DF80B0003B07047000080B586B00D
:10188000049003910292019300208DF80300FFE77A
:10189000049890F82000012804D1FFE702208DF879
:1018A00017004CE00499012081F82000FFE7FFE7D2
:1018B000049890F82100012832D1FFE70499022012
:1018C00081F8210004990020886304980168086861
:1018D00020F00100086004980399029A019BFFF729
:1018E00023FA0498C06A38B1FFE7049801680868D1
:1018F00040F00E0008600CE004980168086820F0D1
:101900000400086004980168086840F00A00086054
:10191000FFE704980168086840F00100086009E0EA
:10192000FFE70499002081F82000FFE702208DF8EE
:101930000300FFE79DF803008DF81700FFE79DF80F
:10194000170006B080BD000080B584B0039000F0A1
:10195000FFF90290039801900198013048B1FFE728
:1019600040F24C00C2F20000017801980844019056
:10197000FFE7FFE700F0ECF90299401A019988426D
:1019800001D2FFE7F6E704B080BD000081B0ADF8FA
:10199000020001B07047000080B582B0ADF80600CB
:1019A00040F21440C4F201000068BDF8061008427D
:1019B0000CD0FFE7BDF8060040F21441C4F201016B
:1019C0000860BDF80600FFF7E1FFFFE702B080BD49
:1019D00090B00F900E9100200D900990FFE70E98A7
:1019E00000680D99C840002800F07F81FFE70D993D
:1019F000012088400C900E9800680C9908400B90CC
:101A00000B980C99884240F06C81FFE70E98406873
:101A10000590002851D0FFE7059801283AD0FFE74C
:101A2000059802283FD0FFE7059803285FD0FFE71D
:101A30000598112832D0FFE70598122838D0FFE723
:101A400005980021C1F21101884236D0FFE70598C0
:101A50000021C1F2120188422FD0FFE70598002132
:101A6000C1F22101884228D0FFE705980021C1F288
:101A70002201884221D0FFE705980021C1F23101FF
:101A800088421AD0FFE705980021C1F2320188424E
:101A900013D02FE00E98C06809902CE00E98C06813
:101AA0000430099027E00E98C0680830099022E0C1
:101AB0000E98C0680C3009901DE00E98806818B927
:101AC000FFE70420099011E00E988068012806D1F4
:101AD000FFE7082009900C980F99086105E008209D
:101AE00009900C980F994861FFE7FFE703E0002099
:101AF000099000E0FFE70B98FF2803D8FFE70F9855
:101B0000049003E00F9804300490FFE704980890D5
:101B10000B98FF2804D8FFE70D988000039006E09B
:101B20000D996FF01F0000EB81000390FFE7039811
:101B3000079008980068079A0F21914088430999F7
:101B400091400843089908600E98C079C0060028A3
:101B500040F1C680FFE7FFE741F21800C4F202003F
:101B6000016841F001010160006800F00100069089
:101B70000698FFE70D9820F003000821C4F2010148
:101B800040580A900D9800F0030081000F2000FAE1
:101B900001F10A9888430A900F9840F60001C4F2B8
:101BA0000101884203D1FFE70020029026E00F9850
:101BB00040F60041C4F20101884203D1FFE7012051
:101BC000019018E00F9841F20001C4F2010188422F
:101BD00003D1FFE7022000900AE00F9941F2004292
:101BE000C4F201020420914208BF03200090FFE7E5
:101BF00000980190FFE701980290FFE702980D9985
:101C000001F00301890000FA01F10A9808430A90E3
:101C10000A980D9921F003010822C4F201028850AC
:101C20000E988079C00748B1FFE70B9A40F2004157
:101C3000C4F2010108681043086008E00B9A40F202
:101C40000041C4F20101086890430860FFE70E9864
:101C500080798007002809D5FFE70B9A40F20441FC
:101C6000C4F2010108681043086008E00B9A40F2D2
:101C70000441C4F20101086890430860FFE70E9830
:101C80008079C006002809D5FFE70B9A40F2084189
:101C9000C4F2010108681043086008E00B9A40F2A2
:101CA0000841C4F20101086890430860FFE70E98FC
:101CB00080798006002809D5FFE70B9A40F20C4195
:101CC000C4F2010108681043086008E00B9A40F272
:101CD0000C41C4F20101086890430860FFE7FFE788
:101CE000FFE70D9801300D9079E610B070470000C5
:101CF00082B00190ADF8021001988068BDF8021022
:101D0000084204D0FFE701208DF8010003E0002025
:101D10008DF80100FFE79DF8010002B07047000058
:101D200082B00190ADF802108DF801209DF80100FD
:101D300028B1FFE7BDF802000199086105E0BDF890
:101D40000200000401990861FFE702B0704700003B
:101D500041F23C10C2F200000068704781B0009070
:101D600001B0704782B001908DF80310ADF80020EB
:101D700002B0704780B588B00790002005900798A2
:101D80000068406804900798C06A0390079890F82C
:101D90003E008DF80B00079890F83D008DF80A0082
:101DA0009DF80B00102806D0FFE79DF80B00402897
:101DB00040F00081FFE70798006880690590079868
:101DC0000068406906900698C007A0B9FFE703992C
:101DD0000120B1F52A0F019008D0FFE7039800F128
:101DE000AC40B0FA80F040090190FFE70198C007CD
:101DF00008B1FFE7A1E10698C00780B1FFE79DF8B1
:101E0000110000F002010020B0EB510F07D0FFE7F6
:101E1000079802F089FF079803F01AFFC9E09DF8C0
:101E2000180000F008010020B0EBD10F0DD0FFE743
:101E30009DF8110000F002010020B0EB510F04D01A
:101E4000FFE7079803F034FDB2E09DF8180000F0BA
:101E500002010020B0EB510F0DD0FFE79DF81100FB
:101E600000F002010020B0EB510F04D0FFE707980B
:101E700003F042FD9BE09DF8140000F004010020F7
:101E8000B0EB910F50D0FFE707980068406800F46E
:101E90000060B0F5006F46D0FFE79DF818100020F5
:101EA000B0EBD11F16D0FFE79DF8110000F0040140
:101EB0000020B0EB910F0DD0FFE79DF8180000F067
:101EC00004010020B0EB910F04D1FFE7079803F065
:101ED0004FFC27E09DF8180000F004010020B0EB53
:101EE000910F1DD0FFE79DF8110000F002010020C6
:101EF000B0EB510F14D0FFE79DF80A00212804D160
:101F0000FFE7079803F0C4FB09E09DF80B004028A9
:101F100004D1FFE7079803F013FFFFE7FFE700E0B6
:101F2000FFE7FFE7FFE741E007980068406800F43B
:101F30000060B0F5006F38D0FFE79DF8180000F0A2
:101F400040010020B0EB911F16D0FFE79DF8110073
:101F500000F004010020B0EB910F0DD0FFE79DF8D9
:101F6000180000F004010020B0EB910F04D1FFE74E
:101F7000079803F0EFFA17E09DF8180000F004014D
:101F80000020B0EB910F0DD0FFE79DF8110000F09D
:101F900002010020B0EB510F04D0FFE7079803F0D7
:101FA00009FA00E0FFE7FFE7FFE7FFE7FFE7FFE7EA
:101FB000FFE7C2E00798006C28B1FFE707980068C8
:101FC0004069069008E007980068806905900798C6
:101FD000006840690690FFE79DF8180000F00201D4
:101FE0000020B0EB510F17D0FFE79DF8110000F073
:101FF00002010020B0EB510F0ED0FFE70798006CF4
:1020000028B1FFE70798006880690590FFE7079807
:10201000059904F061F88FE09DF8180000F01001B8
:102020000020B0EB111F0DD0FFE79DF8110000F06C
:1020300002010020B0EB510F04D0FFE7079804F035
:10204000A3F878E09DF80A00212805D0FFE79DF865
:102050000A00292836D1FFE79DF818100020B0EBC0
:10206000D11F16D0FFE79DF8110000F004010020F9
:10207000B0EB910F0DD0FFE79DF8180000F00401C0
:102080000020B0EB910F04D1FFE7079803F0EEFFBB
:1020900017E09DF8180000F004010020B0EB910F4C
:1020A0000DD0FFE79DF8110000F002010020B0EB19
:1020B000510F04D0FFE7079803F0C2FF00E0FFE7ED
:1020C000FFE737E09DF8180000F040010020B0EB7A
:1020D000911F16D0FFE79DF8110000F004010020C9
:1020E000B0EB910F0DD0FFE79DF8180000F0040150
:1020F0000020B0EB910F04D1FFE7079803F068FFD1
:1021000017E09DF8180000F004010020B0EB910FDB
:102110000DD0FFE79DF8110000F002010020B0EBA8
:10212000510F04D0FFE7079803F03AFF00E0FFE704
:10213000FFE7FFE7FFE7FFE7FFE708B080BD00002C
:1021400081B0009001B0704780B58EB00C900C98B3
:1021500020B9FFE701208DF8370043E10C9890F893
:102160003D0040B9FFE70C99002081F83C000C9835
:1021700000F0C6FBFFE70C99242081F83D000C9885
:102180000168086820F0010008600C980168086880
:1021900040F4004008600C980168086820F4004092
:1021A000086000F041FE0A900C98406848F2A06177
:1021B000C0F2010188420BD8FFE70A9948F2804239
:1021C000C0F21E020020914238BF012009900AE0AF
:1021D0000A9940F60012C0F23D020020914238BF39
:1021E00001200990FFE70998012804D1FFE70120A9
:1021F0008DF83700F6E00A984DF68361C4F21B3182
:10220000A0FB0110800C0B900C980068406820F037
:102210003F000B9908430C99096848600C980068C6
:10222000006A20F03F0008900C98406848F2A061D6
:10223000C0F20101884204D8FFE70B9801300790F3
:102240000EE00B984FF49671484344F6D351C1F217
:102250006201A0FB0101012000EB91100790FFE754
:102260000898079908430C99096808620C98006857
:10227000C0694CF6FF71884306900C98406848F29C
:10228000A061C0F2010188421FD8FFE70A98013817
:102290000C9949684900B0FBF1F001306FF31F3031
:1022A000032803D8FFE7042005900BE00A980138C3
:1022B0000C9949684900B0FBF1F001306FF31F3011
:1022C0000590FFE7059804904CE00C98806868B989
:1022D000FFE70A9801380C99496801EB4101B0FB0E
:1022E000F1F001306FF31F3003900DE00A980138D0
:1022F0000C99496819225143B0FBF1F001300421D7
:1023000061F31F300390FFE70398000518B9FFE75A
:102310000120029023E00C98806868B9FFE70A98D2
:1023200001380C99496801EB4101B0FBF1F0013033
:102330006FF31F3001900DE00A9801380C9949683D
:1023400019225143B0FBF1F00130042161F31F3039
:102350000190FFE7019840F400400290FFE70298E7
:102360000490FFE70698049908430C990968C8612E
:102370000C980068006820F0C0000C9B1968DA69AE
:102380001B6A1A43104308600C980068806848F282
:10239000FF3188430C9A1168D36812691A431043BD
:1023A00088600C980068C06820F0FF000C9B1968DA
:1023B0005A699B691A431043C8600C980168086801
:1023C00040F0010008600C99002008640C9A20215C
:1023D00082F83D100C9908630C9981F83E008DF845
:1023E0003700FFE79DF837000EB080BD81B0009048
:1023F00001B0704781B0009001B0704781B000908B
:1024000001B0704781B0009001B0704781B000907A
:1024100001B0704710B588B084460C980B98DDF871
:1024200028E0CDF818C0ADF81610ADF81420ADF8BE
:102430001230ADF81000FFF78BFC0390069890F86F
:102440003D00202840F0E680FFE7069803996A46A1
:1024500011600221C0F210010122192304F006F8D4
:1024600020B1FFE702208DF81F00D7E0FFE70698B4
:1024700090F83C00012804D1FFE702208DF81F00EE
:10248000CCE00699012081F83C00FFE7FFE70698C1
:1024900000680068C00738B9FFE706980168086857
:1024A00040F001000860FFE706980168086820F422
:1024B000006008600699212081F83D0006994020BF
:1024C00081F83E000699002008640A98069948623F
:1024D000BDF81000069948850698408D0699088534
:1024E00006990020CFF6FF70C8620698BDF8161056
:1024F000BDF81420BDF81230DDF830C0039CEE4664
:10250000CEF80440CEF800C003F0ACFC20B1FFE7E9
:1025100001208DF81F0081E0FFE70698008D00285C
:1025200049D0FFE706980C99039A04F0C3F880B1EC
:10253000FFE70698006C042807D1FFE706980168BA
:10254000086840F400700860FFE701208DF81F0064
:1025500064E006980168406A007808610699486A54
:10256000013048620699088D013808850699488D22
:102570000138488506980068406900F00401012090
:10258000B0EB910F16D1FFE70698008D90B1FFE7F1
:1025900006980168406A007808610699486A013027
:1025A00048620699088D013808850699488D0138DA
:1025B0004885FFE7B1E706980C99039A03F00AFFF4
:1025C00080B1FFE70698006C042807D1FFE7069862
:1025D0000168086840F400700860FFE701208DF88A
:1025E0001F001BE006980168086840F4007008604E
:1025F0000699202081F83D000699002081F83E00D0
:10260000FFE70699002081F83C00FFE700208DF8E5
:102610001F0003E002208DF81F00FFE79DF81F0058
:1026200008B010BD80B58AB084460D98DDF830E062
:10263000CDF820C0ADF81E10ADF81C20ADF81A3052
:10264000ADF8180000200590FFF782FB0390089872
:1026500090F83D00202840F04A81FFE740F210004A
:10266000C2F20000006848F21F51C5F2EB11A0FB56
:102670000110C00844F6D351C1F26201A0FB011061
:102680008009192148430590FFE705980138059016
:102690000598C8B9FFE7089900200863089A202127
:1026A00082F83D10089981F83E000899086C40F0C6
:1026B00020000864FFE70899002081F83C00FFE74C
:1026C00001208DF8270016E1FFE70898006880696F
:1026D00000F002010020B0EB510FD6D1FFE7FFE779
:1026E000089890F83C00012804D1FFE702208DF8FB
:1026F000270000E10899012081F83C00FFE7FFE78F
:10270000089800680068C00738B9FFE708980168B2
:10271000086840F001000860FFE708980168086851
:1027200020F4006008600899212081F83D00089994
:10273000402081F83E000899002008640C98089910
:102740004862BDF81800089948850898408D089996
:10275000088508990020CFF6FF70C8620898008DA0
:10276000002800F0AD80FFE70898406B00B3FFE75A
:102770000898416B44F61970C0F60000886208980A
:10278000416B44F6B560C0F6000008630898416BE1
:102790000020C8620899496B4863089B1A68596A07
:1027A000586B10321B8DFFF769F88DF8130016E097
:1027B0000899202081F83D000899002081F83E000A
:1027C0000899086C40F080000864FFE70899002031
:1027D00081F83C00FFE701208DF827008BE09DF891
:1027E0001300002855D1FFE70898BDF81E10BDF86A
:1027F0001C20BDF81A30DDF80CC0EE46CEF804C03F
:102800004FF0230CCEF800C003F02CFBF0B1FFE733
:102810000898406BFEF700FE8DF813000898416B96
:102820000020886208990A68116821F480611160AB
:10283000089908850899488508980168086820F073
:102840000100086001208DF8270054E0FFE7002018
:1028500002900898006840690290089800688069B2
:1028600002900298FFE7FFE70899002081F83C00FA
:10287000FFE708980168486840F48070486008984D
:102880000168486840F40060486000208DF8270027
:1028900031E00899202081F83D000899002081F856
:1028A0003E000899086C40F010000864FFE70899A2
:1028B000002081F83C00FFE701208DF827001AE096
:1028C0000899202081F83D000899002081F83E00F9
:1028D0000899086C40F040000864FFE70899002060
:1028E00081F83C00FFE701208DF8270003E002207B
:1028F0008DF82700FFE79DF827000AB080BD000093
:1029000080B58CB00B9000200A9009900890079039
:102910000B98006845F20041C4F20001884240F083
:102920008F80FFE7FFE741F21800C4F20200016860
:1029300041F008010160006800F008000690069868
:10294000FFE74FF4407007901220089003200A9090
:1029500040F60040C4F2010007A9FFF739F8FFE78D
:102960000421C4F2010108680590059840F0E06078
:102970000590059840F00200059005980860FFE773
:10298000FFE741F21C00C4F20200016841F40011AB
:102990000160006800F4001004900498FFE740F61E
:1029A000A450C2F2000003906C21C4F20201016045
:1029B00010214160002181608022C260016141617B
:1029C0008161C161FEF702FF18B1FFE7FEF7AEFCBF
:1029D000FFE7FFE70B9840F6A451C2F20001416304
:1029E0000B984862FFE740F66050C2F20000029088
:1029F0008021C4F2020101600021416081608022D7
:102A0000C260016141618161C161FEF7DFFE18B101
:102A1000FFE7FEF78BFCFFE7FFE70B9840F66051FE
:102A2000C2F2000181630B984862FFE71F2001900A
:102A30000022114600F0A4F8019800F097F8FFE793
:102A40000CB080BD81B0009001B0704781B00090A3
:102A500001B0704740F24C00C2F20000027841F22F
:102A60003C11C2F200010868104408607047000081
:102A700080B542F20001C4F20201086840F0100083
:102A80000860032000F096F80F2000F005F800F031
:102A90003BF8002080BD000080B582B0009040F27D
:102AA0001000C2F20000006840F24C01C2F20001C6
:102AB0000A784FF47A71B1FBF2F1B0FBF1F000F05B
:102AC00087FD20B1FFE701208DF8070018E000988E
:102AD0000F280DD8FFE700994FF0FF30002200F0DB
:102AE0004FF8009840F25001C2F20001086003E084
:102AF00001208DF8070003E000208DF80700FFE7B4
:102B00009DF8070002B080BD83B0FFE741F21800D6
:102B1000C4F20200016841F001010160006800F0A8
:102B2000010002900298FFE7FFE741F21C00C4F2A7
:102B30000200016841F080510160006800F080509F
:102B400001900198FFE7FFE70421C4F20101086842
:102B50000090009820F0E0600090009840F0007035
:102B6000009000980860FFE703B0704780B582B01E
:102B70008DF807009DF9070006F008FD02B080BD42
:102B800080B586B08DF81700049103920020029062
:102B900006F014FD02909DF9170001900298049927
:102BA000039A04F009FE0146019806F00FFD06B0F5
:102BB00080BD000080B582B00190019806F028FD2C
:102BC00002B080BD80B584B002900191029820B916
:102BD000FFE701208DF80F001BE1019842F2000190
:102BE000C4F20201096801F00701884216D9FFE723
:102BF00042F20000C4F20200016821F00701019ACC
:102C000011430160006800F007000199884204D078
:102C1000FFE701208DF80F00FBE0FFE70298007846
:102C2000800700282AD5FFE702980078400700288F
:102C300009D5FFE741F20401C4F20201086840F43B
:102C4000E0600860FFE7029800780007002809D5D7
:102C5000FFE741F20401C4F20201086840F4605049
:102C60000860FFE741F20401C4F20201086820F0A5
:102C7000F000029A926810430860FFE7029800781B
:102C8000C007002860D0FFE70298406801280ED1F5
:102C9000FFE741F20000C4F2020000688003002850
:102CA00004D4FFE701208DF80F00B2E021E0029884
:102CB000406802280ED1FFE741F20000C4F2020092
:102CC00000688001002804D4FFE701208DF80F0080
:102CD0009FE00DE041F20000C4F2020000688007AE
:102CE000002804D4FFE701208DF80F0091E0FFE7F2
:102CF000FFE741F20401C4F20201086820F003007A
:102D0000029A526810430860FFF722F80090FFE72C
:102D100041F20400C4F20200006800F00C000299C5
:102D20004968B0EB810F0ED0FFE7FFF711F800996B
:102D3000401A41F28931884204D3FFE703208DF81D
:102D40000F0066E0E4E7FFE7019842F20001C4F2F9
:102D50000201096801F00701884216D2FFE742F23A
:102D60000000C4F20200016821F00701019A11433A
:102D70000160006800F007000199884204D0FFE775
:102D800001208DF80F0044E0FFE70298007840072B
:102D900000280CD5FFE741F20401C4F202010868E3
:102DA00020F4E060029AD26810430860FFE70298BE
:102DB0000078000700280DD5FFE741F20401C4F2B6
:102DC0000201086820F46050029A126940EAC200C9
:102DD0000860FFE700F04CF841F20401C4F2020180
:102DE0000968C9B20A094EF2B051C0F60001895C07
:102DF000C84040F21001C2F20001086040F25000E9
:102E0000C2F200000068FFF747FE00208DF80F00B7
:102E1000FFE79DF80F0004B080BD000040F21000F5
:102E2000C2F200000068704780B5FFF7F7FF41F27B
:102E30000401C4F202010968C1F302224EF2C0513A
:102E4000C0F60001895CC84080BD000080B5FFF776
:102E5000E5FF41F20401C4F202010968C1F3C22294
:102E60004EF2C051C0F60001895CC84080BD000030
:102E70008BB040F60E70C1F210000A9040F60A3096
:102E8000C0F60C50099040F20670C0F60810089089
:102E900040F20230C0F20450079040F20120ADF839
:102EA0001A0000200590049003900290019041F2D6
:102EB0000400C4F2020000680590059800F00C00C0
:102EC00001460091E0B3FFE70098042804D0FFE733
:102ED0000098082806D034E041F20020C0F27A00C1
:102EE000019034E00598C0F3834107A8405C02904C
:102EF0009DF81600C007C0B1FFE741F20400C4F21C
:102F00000200006800F400310DF11A0040EA51405F
:102F100000780490029841F20021C0F27A014843FF
:102F20000499B0FBF1F0039007E0029840F600111D
:102F3000C0F23D0148430390FFE70398019006E08B
:102F4000FFE741F20020C0F27A000190FFE701980C
:102F50000BB0704780B586B00490049820B9FFE7A5
:102F600001208DF817002EE304980078C007002890
:102F700000F0AE80FFE741F20400C4F202000068F6
:102F800000F00C00042813D0FFE741F20400C4F263
:102F90000200006800F00C0008281BD1FFE741F296
:102FA0000400C4F202000068C003002812D5FFE745
:102FB00041F20000C4F2020000688003002808D536
:102FC000FFE70498406820B9FFE701208DF817005B
:102FD000F9E27CE0FFE704984068B0F5803F09D152
:102FE000FFE741F20001C4F20201086840F48030BA
:102FF000086032E00498406868B9FFE741F20001D8
:10300000C4F20201086820F480300860086820F4E7
:103010008020086020E004984068B0F5A02F0DD112
:10302000FFE741F20001C4F20201086840F4802089
:103030000860086840F4803008600CE041F200014C
:10304000C4F20201086820F480300860086820F4A7
:1030500080200860FFE7FFE7FFE7FFE7049840688C
:10306000D0B1FFE7FEF774FE0390FFE741F20000E6
:10307000C4F202000068800300280CD4FFE7FEF7CA
:1030800067FE0399401A652804D3FFE703208DF8F3
:10309000170098E2EAE719E0FEF75AFE0390FFE70F
:1030A00041F20000C4F202000068800300280CD541
:1030B000FFE7FEF74DFE0399401A652804D3FFE7AA
:1030C00003208DF817007EE2EAE7FFE7FFE7FFE75E
:1030D000049800788007002840F18D80FFE741F2D6
:1030E0000400C4F20200006810F00C0F13D0FFE7D8
:1030F00041F20400C4F20200006800F00C0008284D
:1031000029D1FFE741F20400C4F202000068C003C5
:10311000002820D4FFE741F20000C4F2020000685A
:103120008007002809D5FFE704980069012804D02A
:10313000FFE701208DF8170045E241F20001C4F2DB
:103140000201086820F0F800049A526940EAC200BF
:103150000860FFE74EE00498006958B3FFE70021DC
:10316000C4F2422101200860FEF7F2FD0390FFE760
:1031700041F20000C4F202000068800700280CD46D
:10318000FFE7FEF7E5FD0399401A032804D3FFE7A4
:1031900003208DF8170016E2EAE741F20001C4F2BD
:1031A0000201086820F0F800049A526940EAC2005F
:1031B00008601EE00021C4F2422100200860FEF7F2
:1031C000C7FD0390FFE741F20000C4F2020000686F
:1031D000800700280CD5FFE7FEF7BAFD0399401AD7
:1031E000032804D3FFE703208DF81700EBE1EAE79B
:1031F000FFE7FFE7FFE7049800780007002848D5BD
:10320000FFE70498806918B3FFE740F28041C4F2F9
:10321000422101200860FEF79BFD0390FFE741F289
:103220002400C4F202000068800700280CD4FFE7E5
:10323000FEF78EFD0399401A032804D3FFE703200D
:103240008DF81700BFE1EAE7012005F025FA1FE03D
:1032500040F28041C4F2422100200860FEF778FD70
:103260000390FFE741F22400C4F2020000688007E7
:1032700000280CD5FFE7FEF76BFD0399401A0328E1
:1032800004D3FFE703208DF817009CE1EAE7FFE78E
:10329000FFE7049800784007002840F1D880FFE756
:1032A00000208DF8070041F21C00C4F20200006803
:1032B000C000002813D4FFE7FFE741F21C00C4F26E
:1032C0000200016841F080510160006800F0805008
:1032D00000900098FFE701208DF80700FFE747F214
:1032E0000000C4F200000068C005002822D4FFE7F7
:1032F00047F20001C4F20001086840F480700860E1
:10330000FEF726FD0390FFE747F20000C4F200003D
:103310000068C00500280CD4FFE7FEF719FD0399EB
:10332000401A652804D3FFE703208DF817004AE10F
:10333000EAE7FFE7FFE70498C068012809D1FFE743
:1033400041F22001C4F20201086840F00100086067
:1033500031E00498C06868B9FFE741F22001C4F287
:103360000201086820F001000860086820F00400ED
:1033700008601FE00498C06805280DD1FFE741F2FE
:103380002001C4F20201086840F0040008600868E7
:1033900040F0010008600CE041F22001C4F202019B
:1033A000086820F001000860086820F00400086048
:1033B000FFE7FFE7FFE7FFE70498C068E0B1FFE73A
:1033C000FEF7C6FC0390FFE741F22000C4F20200C2
:1033D0000068800700280ED4FFE7FEF7B9FC0399C8
:1033E000401A41F28931884204D3FFE703208DF867
:1033F0001700E8E0E8E71BE0FEF7AAFC0390FFE710
:1034000041F22000C4F202000068800700280ED5B7
:10341000FFE7FEF79DFC0399401A41F2893188428B
:1034200004D3FFE703208DF81700CCE0E8E7FFE7BF
:103430009DF80700012809D1FFE741F21C01C4F201
:103440000201086820F080500860FFE7FFE7049859
:10345000C069002800F0B380FFE741F20400C4F225
:103460000200006800F00C00082800F08280FFE7EE
:103470000498C06902285CD1FFE76021C4F24221B0
:1034800000200860FEF764FC0390FFE741F20000B3
:10349000C4F202000068800100280CD5FFE7FEF7A7
:1034A00057FC0399401A032804D3FFE703208DF843
:1034B000170088E0EAE70498006AB0F5803F0CD175
:1034C000FFE741F20401C4F20201086820F4003071
:1034D000049A926810430860FFE741F20401C4F2C5
:1034E0000201086820F47410049B1A6A5B6A1A438C
:1034F000104308606021C4F2422101200860FEF7F9
:1035000027FC0390FFE741F20000C4F202000068CC
:10351000800100280CD4FFE7FEF71AFC0399401A3B
:10352000032804D3FFE703208DF817004BE0EAE7F8
:103530001EE06021C4F2422100200860FEF708FC72
:103540000390FFE741F20000C4F20200006880012E
:1035500000280CD5FFE7FEF7FBFB0399401A032870
:1035600004D3FFE703208DF817002CE0EAE7FFE71C
:1035700024E00498C069012804D1FFE701208DF8F8
:10358000170020E041F20400C4F20200006802903B
:10359000029800F480300499096A884208D1FFE754
:1035A000029800F470100499496A884204D0FFE739
:1035B00001208DF8170006E0FFE7FFE7FFE7002096
:1035C0008DF81700FFE79DF8170006B080BD0000DA
:1035D00080B582B00190019805F044F902B080BD39
:1035E00081B0009001B0704781B0009001B0704789
:1035F00084B00290019100200090FFE7029890F8BB
:103600003C00012804D1FFE702208DF80F0044E0C0
:103610000299012081F83C00FFE7FFE7009820F0C5
:10362000FF000199C96808430090009820F4407099
:103630000199896808430090009820F480600199FE
:10364000496808430090009820F4006001990968D7
:1036500008430090009820F48050019909690843BC
:103660000090009820F400500199496908430090A7
:10367000009820F480400199C9690843009000989F
:10368000029909684864FFE70299002081F83C002C
:10369000FFE700208DF80F00FFE79DF80F0004B052
:1036A0007047000085B003900291FFE7039890F8FF
:1036B0003C00012804D1FFE702208DF813005BE0F5
:1036C0000399012081F83C00FFE7FFE703990220FE
:1036D00081F83D00039800684068019003980068F5
:1036E00080680090019820F07000019002980168B5
:1036F000019808430190019803990968486003986C
:10370000006842F60041C4F20101884218D0FFE788
:1037100003980068B0F1804F12D0FFE7039800686B
:1037200040F20041C4F20001884209D0FFE703984B
:10373000006840F60001C4F2000188420ED1FFE7A4
:10374000009820F08000009002984168009808439B
:1037500000900098039909688860FFE703990120A9
:1037600081F83D00FFE70399002081F83C00FFE766
:1037700000208DF81300FFE79DF8130005B0704797
:1037800080B582B00090009820B9FFE701208DF845
:1037900007003FE0009890F83D0040B9FFE700992E
:1037A000002081F83C00009800F038F8FFE700990D
:1037B000022081F83D00009951F8040B05F0C8F88B
:1037C0000099012081F84600FFE70099012081F867
:1037D0003E00009981F83F00009981F8400000996F
:1037E00081F84100FFE7FFE70099012081F84200DE
:1037F000009981F84300009981F84400009981F80C
:103800004500FFE70099012081F83D0000208DF878
:103810000700FFE79DF8070002B080BD83B002906B
:103820000298006842F60041C4F20101884210D1BA
:10383000FFE7FFE741F21800C4F20200016841F41B
:1038400000610160006800F4006001900198FFE7EA
:1038500019E00298006840F60001C4F200018842B5
:1038600010D1FFE7FFE741F21C00C4F2020001683B
:1038700041F004010160006800F00400009000982D
:10388000FFE7FFE7FFE703B07047000083B0019058
:10389000019890F83D00012804D0FFE701208DF841
:1038A0000B0041E00199022081F83D000198006879
:1038B00042F60041C4F20101884218D0FFE70198A6
:1038C0000068B0F1804F12D0FFE70198006840F225
:1038D0000041C4F20001884209D0FFE70198006866
:1038E00040F60001C4F20001884212D1FFE70198BE
:1038F0000068806800F0070000900098062807D054
:10390000FFE701980168086840F001000860FFE7E0
:1039100006E001980168086840F001000860FFE7D0
:1039200000208DF80B00FFE79DF80B0003B07047F7
:1039300083B00190019890F83D00012804D0FFE782
:1039400001208DF80B0047E00199022081F83D002D
:1039500001980168C86840F00100C86001980068DB
:1039600042F60041C4F20101884218D0FFE70198F5
:103970000068B0F1804F12D0FFE70198006840F274
:103980000041C4F20001884209D0FFE701980068B5
:1039900040F60001C4F20001884212D1FFE701980D
:1039A0000068806800F0070000900098062807D0A3
:1039B000FFE701980168086840F001000860FFE730
:1039C00006E001980168086840F001000860FFE720
:1039D00000208DF80B00FFE79DF80B0003B0704747
:1039E00081B00090FFE700980068006A41F2111171
:1039F000084210D1FFE700980068006A40F2444195
:103A0000084207D1FFE700980168086820F001002C
:103A10000860FFE7FFE7FFE70099012081F83D001C
:103A2000002001B07047000080B586B0049003917B
:103A3000FFE7049890F83C00012804D1FFE702203A
:103A40008DF81700A7E00499012081F83C00FFE7FA
:103A5000FFE70499022081F83D000498006880681F
:103A60000290029820F077000290029820F47F40A4
:103A70000290029804990968886003980068019090
:103A8000002872D0FFE7019810286ED0FFE7019858
:103A900020286AD0FFE70198302866D0FFE7019818
:103AA000402855D0FFE70198502837D0FFE701980C
:103AB000602840D0FFE7019870280BD0FFE70198FD
:103AC000B0F5805F05D0FFE70198B0F5005F16D034
:103AD00052E052E004980068039B5A689968DB68DA
:103AE00004F0CAFF0498006880680290029840F0D1
:103AF0007700029002980499096888603DE0049874
:103B00000068039B5A689968DB6804F0B5FF049865
:103B10000168886840F4804088602EE0049800685E
:103B2000039A5168D26805F063F90498006850213F
:103B300004F0BCFF21E004980068039A5168D26841
:103B400005F07EF904980068602104F0AFFF14E0EE
:103B500004980068039A5168D26805F049F90498FE
:103B60000068402104F0A2FF07E004980068039970
:103B7000096804F09BFF00E0FFE70499012081F849
:103B80003D00FFE70499002081F83C00FFE700209A
:103B90008DF81700FFE79DF8170006B080BD000004
:103BA00080B586B004900391049820B9FFE7012006
:103BB0008DF8170084E0049890F83D0040B9FFE7C5
:103BC0000499002081F83C00049800F07DF8FFE79C
:103BD0000499022081F83D0004980168886844F245
:103BE000070290438860049951F8040B04F0B0FE7A
:103BF00004980068806802900498006880690190C9
:103C000004980068006A00900398016802980843CD
:103C10000290019840F2033188430190039988682B
:103C2000896940EA0121019808430190019840F612
:103C30000C418843019001984FF2F00188430190B4
:103C40000399C868C96940EA0121019808430190B5
:103C500003990869096A000140EA013101980843A3
:103C60000190009820F0220000900399486849696B
:103C700040EA0111009808430090029804990968ED
:103C80008860019804990968886100980499096816
:103C900008620499012081F84600049981F83E00E9
:103CA000049981F83F00049981F84200049981F851
:103CB0004300049981F83D0000208DF81700FFE7CC
:103CC0009DF8170006B080BD80B58AB0099000202D
:103CD000089007900690059009980068B0F1804F11
:103CE0002BD1FFE7FFE741F21C00C4F2020001689C
:103CF00041F001010160006800F0010004900498A7
:103D0000FFE7FFE741F21800C4F20200016841F04A
:103D100004010160006800F0040003900398FFE7CD
:103D20000320059000200690079040F60000C4F2A2
:103D3000010005A9FDF74CFE34E00998006840F247
:103D40000041C4F2000188422BD1FFE7FFE741F2B6
:103D50001C00C4F20200016841F002010160006829
:103D600000F0020002900298FFE7FFE741F218001E
:103D7000C4F20200016841F004010160006800F033
:103D8000040001900198FFE7C020059000200690F4
:103D9000079040F60000C4F2010005A9FDF718FEE7
:103DA000FFE7FFE70AB080BD80B586B004900391BD
:103DB000049890F83E008DF80B00049890F83F00AE
:103DC0008DF80A00049890F842008DF809000498D4
:103DD00090F843008DF808000398B8B9FFE79DF804
:103DE0000B00012805D1FFE79DF80900012804D048
:103DF000FFE701208DF8170091E00499022081F877
:103E00003E00049981F84200FFE742E0039804284D
:103E100017D1FFE79DF80A00012805D1FFE79DF8BB
:103E20000800012804D0FFE701208DF8170076E094
:103E30000499022081F83F00049981F84300FFE7CC
:103E400026E09DF80B0001280FD1FFE79DF80A003E
:103E500001280AD1FFE79DF80900012805D1FFE7F5
:103E60009DF80800012804D0FFE701208DF8170015
:103E700055E00499022081F83E00049981F83F0042
:103E8000049981F84200049981F84300FFE7FFE7B5
:103E9000FFE70398019020B1FFE7019804280DD0B7
:103EA00019E0049800680021012204F0C9FD04987B
:103EB0000168C86840F00200C86026E00498006805
:103EC0000421012204F0BCFD04980168C86840F098
:103ED0000400C86019E004980068002101220092E3
:103EE00004F0AEFD009A04980068042104F0A8FDD7
:103EF00004980168C86840F00200C860049801682E
:103F0000C86840F00400C860FFE7049801680868CA
:103F100040F00100086000208DF81700FFE79DF8D1
:103F2000170006B080BD000081B0009001B070475E
:103F300080B582B0019001980068006900F002012C
:103F40000020B0EB510F28D0FFE701980068C0684F
:103F500000F002010020B0EB510F1DD0FFE70198E7
:103F600001686FF00200086101990120087701984B
:103F700000688069800720B1FFE70198FFF7D4FF50
:103F800006E0019800F042F9019800F02FFAFFE7EF
:103F9000019900200877FFE7FFE7019800680069B2
:103FA00000F004010020B0EB910F29D0FFE7019849
:103FB0000068C06800F004010020B0EB910F1ED033
:103FC000FFE7019801686FF0040008610199022081
:103FD000087701980068806910F4407F04D0FFE7FB
:103FE0000198FFF7A1FF06E0019800F00FF9019892
:103FF00000F0FCF9FFE7019900200877FFE7FFE7F1
:1040000001980068006900F008010020B0EBD10FB2
:1040100028D0FFE701980068C06800F00801002080
:10402000B0EBD10F1DD0FFE7019801686FF00800D9
:10403000086101990420087701980068C069800729
:1040400020B1FFE70198FFF76FFF06E0019800F04D
:10405000DDF8019800F0CAF9FFE701990020087720
:10406000FFE7FFE701980068006900F010010020F9
:10407000B0EB111F29D0FFE701980068C06800F07D
:1040800010010020B0EB111F1ED0FFE7019801685E
:104090006FF0100008610199082008770198006806
:1040A000C06910F4407F04D0FFE70198FFF73CFFA0
:1040B00006E0019800F0AAF8019800F097F9FFE7F0
:1040C000019900200877FFE7FFE701980068006981
:1040D000C00780B1FFE701980068C068C00748B119
:1040E000FFE7019801686FF001000861019800F096
:1040F0005DFAFFE7FFE7019800680069C1B20020A0
:10410000B0EBD11F13D0FFE701980068C068C1B2BF
:104110000020B0EBD11F09D0FFE7019801686FF0D4
:10412000800008610198FFF75BFAFFE7FFE701985D
:104130000068006900F040010020B0EB911F14D02E
:10414000FFE701980068C06800F040010020B0EB74
:10415000911F09D0FFE7019801686FF040000861E6
:10416000019800F027FAFFE7FFE70198006800696F
:1041700000F020010020B0EB511F14D0FFE70198A0
:104180000068C06800F020010020B0EB511F09D08A
:10419000FFE7019801686FF0200008610198FFF7C0
:1041A00023FAFFE7FFE702B080BD000080B586B0CC
:1041B00005900020049003900290019005980068FB
:1041C00042F60041C4F2010188421DD1FFE7FFE73A
:1041D00041F21800C4F20200016841F004010160DC
:1041E000006800F0040000900098FFE74FF4407072
:1041F000019002200290049040F60000C4F20100F9
:1042000001A9FDF7E5FBFFE706B080BD81B0009096
:1042100001B0704780B586B0049003910292FFE729
:10422000049890F83C00012804D1FFE702208DF8A3
:10423000170085E00499012081F83C00FFE7FFE7C3
:10424000029801900C2800F270800199DFE801F0DB
:10425000076D6D6D206D6D6D3A6D6D6D5300049839
:104260000068039904F038FC04980168886940F0FC
:104270000800886104980168886920F0040088615A
:1042800003980269049801688869104388614DE0C9
:1042900004980068039904F087FC04980168886911
:1042A00040F40060886104980168886920F48060A7
:1042B00088610398026904980168886940EA0220CD
:1042C000886133E004980068039904F0D9FC0498ED
:1042D0000168C86940F00800C86104980168C869AD
:1042E00020F00400C8610398026904980168C86955
:1042F0001043C8611AE004980068039904F02CFD8B
:1043000004980168C86940F40060C86104980168B5
:10431000C86920F48060C861039802690498016844
:10432000C86940EA0220C86100E0FFE7FFE704999E
:10433000002081F83C00FFE700208DF81700FFE720
:104340009DF8170006B080BD80B582B0009000983F
:1043500020B9FFE701208DF807003FE0009890F8B2
:104360003D0040B9FFE70099002081F83C0000982B
:1043700000F038F8FFE70099022081F83D0000992D
:1043800051F8040B04F0E4FA0099012081F846008A
:10439000FFE70099012081F83E00009981F83F0075
:1043A000009981F84000009981F84100FFE7FFE79C
:1043B0000099012081F84200009981F8430000999A
:1043C00081F84400009981F84500FFE70099012039
:1043D00081F83D0000208DF80700FFE79DF80700F9
:1043E00002B080BD81B0009001B0704781B00090F4
:1043F00001B0704780B58AB008900791079828B936
:10440000FFE7089890F83E0005901CE00798042804
:1044100005D1FFE7089890F83F00049010E0079856
:10442000082805D1FFE7089890F84000039004E0C1
:10443000089890F841000390FFE703980490FFE785
:1044400004980590FFE70598012804D0FFE70120B4
:104450008DF82700A5E0079828B9FFE70899022002
:1044600081F83E001EE00798042806D1FFE708996E
:10447000022081F83F00029012E00798082806D138
:10448000FFE70899022081F84000019005E00899B3
:10449000022081F841000190FFE701980290FFE7B8
:1044A0000298FFE7079800900C2825D80099DFE8CC
:1044B00001F0072323230E232323152323231C008A
:1044C00008980168C86840F00200C86015E00898C4
:1044D0000168C86840F00400C8600EE008980168F0
:1044E000C86840F00800C86007E008980168C8681C
:1044F00040F01000C86000E0FFE7089800680799E6
:10450000012204F09DFA0898006842F60041C4F2C6
:104510000101884207D1FFE708980168486C40F420
:1045200000404864FFE70898006842F60041C4F282
:104530000101884218D0FFE708980068B0F1804F69
:1045400012D0FFE70898006840F20041C4F2000171
:10455000884209D0FFE70898006840F60001C4F2DD
:104560000001884212D1FFE708980068806800F0D7
:10457000070006900698062807D0FFE7089801680C
:10458000086840F001000860FFE706E0089801684D
:10459000086840F001000860FFE700208DF8270060
:1045A000FFE79DF827000AB080BD000081B00090B1
:1045B00001B0704781B0009001B0704782B00190A7
:1045C000ADF8021002B0704781B0009001B07047A2
:1045D00080B588B007900798006800680690079833
:1045E0000068C06805900798006840690490002042
:1045F00003900290069800F00F000390039888B98A
:10460000FFE79DF81800800600280AD5FFE79DF80F
:1046100014008006002804D5FFE7079804F0D0FDB9
:1046200076E1FFE70398002800F0B480FFE79DF8EB
:104630001000C00738B9FFE7BDF8140010F4907FF0
:1046400000F0A880FFE79DF81800C00758B1FFE709
:104650009DF81500C00730B1FFE70799086C40F0DE
:1046600001000864FFE79DF81800400700280BD5FB
:10467000FFE79DF81000C00730B1FFE70799086C0D
:1046800040F002000864FFE79DF81800800700284A
:104690000BD5FFE79DF81000C00730B1FFE7079981
:1046A000086C40F004000864FFE79DF8180000075C
:1046B000002811D5FFE79DF814008006002805D4D6
:1046C000FFE79DF81000C00730B1FFE70799086CBD
:1046D00040F008000864FFE70798006C002858D0F5
:1046E000FFE79DF81800800600280AD5FFE79DF82F
:1046F00014008006002804D5FFE7079804F060FD49
:10470000FFE7079800684069C0F38010029007989F
:10471000006C0007002803D4FFE7029888B3FFE786
:10472000079804F007FD07980068406940060028D4
:1047300022D5FFE707980168486920F040004861EA
:104740000798806B98B1FFE70798816B48F68170F6
:10475000C0F6000048630798806BFCF75DFE28B147
:10476000FFE70798806B416B8847FFE703E00798F6
:10477000FFF72AFFFFE703E00798FFF725FFFFE7B2
:1047800006E00798FFF720FF079900200864FFE77D
:10479000FFE7BDE00798006B012840F09980FFE734
:1047A0009DF81800C006002840F19280FFE79DF8B0
:1047B0001400C006002840F18B80FFE7FFE70020CF
:1047C00001900798006800680190079800684068A9
:1047D00001900198FFE707980068406940060028AB
:1047E00048D5FFE70798806B00684068ADF8020085
:1047F000BDF80200E8B3FFE7BDF802000799898D14
:10480000884236DAFFE7BDF802000799C8850798A5
:10481000806B8069202824D0FFE707980168C8686A
:1048200020F48070C86007980168486920F0010092
:10483000486107980168486920F04000486107997D
:10484000202081F83E00079900200863079801683E
:10485000C86820F01000C8600798806BFCF79EFDC8
:10486000FFE70798818DC28D891A89B2FFF7A6FEEE
:10487000FFE74DE00799888DC98D401AADF800001B
:104880000798C08D18B3FFE7BDF80000F8B1FFE747
:1048900007980168C86820F49070C860079801689C
:1048A000486920F0010048610799202081F83E0006
:1048B00007990020086307980168C86820F0100075
:1048C000C8600798BDF80010FFF778FEFFE71FE00B
:1048D0009DF81800000600280AD5FFE79DF814008F
:1048E0000006002804D5FFE7079804F0CDFD0FE08F
:1048F0009DF81800400600280AD5FFE79DF814002F
:104900004006002804D5FFE7079804F037FCFFE7CE
:1049100008B080BD80B582B00090009820B9FFE754
:1049200001208DF807003EE00098806908B1FFE79C
:1049300000E0FFE7009890F83D0040B9FFE70099DC
:10494000002081F83C00009800F032F8FFE7009961
:10495000242081F83D0000980168C86820F40050C8
:10496000C860009804F0D2FC00980168086920F43F
:104970009040086100980168486920F02A00486169
:1049800000980168C86840F40050C8600099002091
:104990000864009A202182F83D10009A82F83E10A7
:1049A0008DF80700FFE79DF8070002B080BD00000A
:1049B00080B590B00F9000200E900D900C900B9051
:1049C0000F98006843F60001C4F20101884240F0EC
:1049D0009180FFE7FFE741F21800C4F2020001688E
:1049E00041F480410160006800F480400A900A9818
:1049F000FFE7FFE741F21800C4F20200016841F04E
:104A000008010160006800F0080009900998FFE7BC
:104A100040200B9002200C9003200E9040F60040A6
:104A2000C4F2010004900BA90591FCF7D1FF049892
:104A3000059980220B9200220C920D92FCF7C8FF80
:104A4000FFE70421C4F2010108680890089840F0CB
:104A5000E0600890089840F004000890089808600A
:104A6000FFE740F6E850C2F2000003905821C4F27C
:104A7000020101600021416081608022C260016109
:104A8000416120228261C161FCF7A0FE18B1FFE7FD
:104A9000FCF74CFCFFE7FFE70F9840F6E851C2F245
:104AA000000181630F984862FFE740F62C60C2F274
:104AB000000002904421C4F2020101601021416013
:104AC000002181608022C260016141618161C16118
:104AD000FCF77CFE18B1FFE7FCF728FCFFE7FFE7D7
:104AE0000F9840F62C61C2F2000141630F984862B2
:104AF000FFE740E00F98006844F20041C4F2000173
:104B0000884237D1FFE7FFE741F21C00C4F2020000
:104B1000016841F400310160006800F40030079042
:104B20000798FFE7FFE741F21800C4F202000168AE
:104B300041F004010160006800F00400069006984E
:104B4000FFE704200B9002200C9003200E9040F60B
:104B50000000C4F2010000900BA90191FCF738FF9E
:104B60000098019908220B9200220C920D92FCF7FA
:104B70002FFFFFE7FFE710B080BD000080B584B0D5
:104B800002900191ADF80220029890F83E00202892
:104B900028D1FFE7019820B1FFE7BDF8020020B956
:104BA000FFE701208DF80F0020E0FFE7029890F862
:104BB0003C00012804D1FFE702208DF80F0015E02A
:104BC0000299012081F83C00FFE7FFE702990020ED
:104BD000086302980199BDF8022004F0F5FB8DF8F6
:104BE0000F0003E002208DF80F00FFE79DF80F0093
:104BF00004B080BD81B0009001B0704781B00090DA
:104C000001B0704780B586B004900391ADF80A20DA
:104C1000049890F83D00202867D1FFE7039820B161
:104C2000FFE7BDF80A0020B9FFE701208DF8170063
:104C30005FE0FFE7049890F83C00012804D1FFE70B
:104C400002208DF8170054E00499012081F83C00FF
:104C5000FFE7FFE7039804990862BDF80A0004998A
:104C60008884BDF80A000499C88404990020086467
:104C7000049A212182F83D1004994A6B49F2D5012A
:104C8000C0F60001916204994A6B49F21D11C0F609
:104C90000001D16204994A6B48F6A171C0F6000187
:104CA00011630499496B486303A801900498026852
:104CB000406B019909680432BDF80A30FCF7DEFD4B
:104CC000049801686FF040000860FFE70499002035
:104CD00081F83C00FFE704980168486940F08000D3
:104CE000486100208DF8170003E002208DF81700BE
:104CF000FFE79DF8170006B080BD000080B582B0C8
:104D00000190019804F0ACFD02B080BD81B000902C
:104D100001B07047FFE7FEE780B540F67060C2F271
:104D20000000FDF727F880BD81B000900098C06AB0
:104D3000B0F52A0F04D1FFE700990120C8620BE00B
:104D40000098C06AB0F12A4F04D1FFE7009908200B
:104D5000C86200E0FFE7FFE701B0704780B584B0AC
:104D60000390002002900398406A0190019890F807
:104D70003D008DF8030040F21000C2F20000006810
:104D800048F21F51C5F2EB11A0FB0110C00844F618
:104D9000D351C1F26201A0FB0110800923214843D5
:104DA0000290FFE7029830B9FFE70199086C40F0E4
:104DB000200008640CE0029801380290FFE7019897
:104DC0000068006800F40070B0F5007FEAD0FFE7EB
:104DD0000198406B28B1FFE70198416B0020886281
:104DE000FFE70198806B28B1FFE70198816B0020F5
:104DF0008862FFE701980168086820F48060086015
:104E00000199002048850198406B28B1FFE701987F
:104E1000416B00204863FFE70198806B28B1FFE7F2
:104E20000198816B00204863FFE7019801680868DA
:104E300020F001000860019890F83D0060280ED134
:104E4000FFE70199202081F83D000199002081F8B9
:104E50003E00019908640198FCF780FF27E09DF867
:104E6000030000F02800282814D1FFE7019801680A
:104E7000086840F00100086001980168086840F483
:104E8000806008600199002008630199282081F85A
:104E90003D0008E00199202081F83D0001990020A3
:104EA00081F83E00FFE70198FDF74AF9FFE704B0FB
:104EB00080BD000080B582B001900198406A0090EA
:104EC0000098406B28B1FFE70098416B0020886292
:104ED000FFE70098806B28B1FFE70098816B002006
:104EE0008862FFE700980168086820F48060086025
:104EF000009900204885009A202182F83D100099F1
:104F000081F83E000099086C40F010000864009899
:104F1000FDF716F902B080BD80B584B00390039808
:104F2000406A0290029890F83D008DF807000298C0
:104F300090F83E008DF806000298C06A0090029832
:104F40000168486820F4407048600298406B28B1BE
:104F5000FFE70298416B00208862FFE70298806BB0
:104F600028B1FFE70298816B00208862FFE79DF877
:104F7000070000F0210021280CD0FFE79DF8070072
:104F800000F02200222837D1FFE79DF806002028F4
:104F900032D1FFE702980168486820F40060486059
:104FA0000299002048859DF8070029280BD1FFE7CA
:104FB0000299212008630299282081F83D00029877
:104FC000FDF744FD11E09DF807002A280BD1FFE70B
:104FD0000299222008630299282081F83D00029856
:104FE000FDF730FD00E0FFE7FFE702980168486841
:104FF00040F4407048606AE0029890F83E00002853
:1050000063D0FFE70298408D012807D1FFE702989F
:105010000168086820F480600860FFE70298016872
:10502000486820F440704860009810F5803F0DD02B
:10503000FFE70098082809D0FFE70098B0F12A4F51
:1050400004D0FFE70098202807D1FFE70298016805
:10505000086840F400700860FFE70298016848683B
:1050600020F48050486002980168486820F400608D
:1050700048600299002048850298006C20B1FFE743
:105080000298FDF75DF81FE00299202081F83D00AD
:10509000029890F83E0040280AD1FFE702990020CC
:1050A00081F83E00029908630298FDF7ABF90AE027
:1050B0000299002081F83E000299122008630298AC
:1050C000FDF798F9FFE7FFE700E0FFE7FFE704B02F
:1050D00080BD000080B584B00390039890F83D0037
:1050E0008DF80B00039890F83E008DF80A009DF8AB
:1050F0000A00102805D0FFE79DF80A0040280CD1CF
:10510000FFE79DF80B00222807D1FFE7039801680D
:10511000086820F400600860FFE79DF80B0000F0CD
:105120002800282808D1FFE7039900200863039985
:10513000282081F83D001AE003980068406800F4D8
:105140000060B0F5006F0ED0FFE79DF80B006028FF
:1051500009D0FFE70399202081F83D000399002042
:1051600081F83E00FFE7039900200863FFE70398FA
:1051700000684068000500285DD5FFE703980168D6
:10518000486820F4006048600398406B90F8210064
:1051900001281DD0FFE70398416B44F65D50C0F62F
:1051A000000048630398406BFCF736F978B1FFE7DD
:1051B00003980168086820F0010008600399202026
:1051C00081F83D000398406B416B8847FFE731E071
:1051D0000398816B44F65D50C0F600004863039865
:1051E000806BFCF719F920B3FFE70398006840696A
:1051F00000F040010120B0EB911F0BD1FFE70398B5
:10520000006800690399496A08700399486A013087
:105210004862FFE703980168086820F00100086011
:105220000399202081F83D000398806B416B8847EB
:10523000FFE7FFE745E0039890F83D00602826D19E
:10524000FFE70399202081F83D00039900200864BE
:1052500003980068406900F040010120B0EB911F05
:105260000BD1FFE70398006800690399496A087049
:105270000399486A01304862FFE7039801680868AB
:1052800020F0010008600398FCF768FD18E003981F
:105290000068406900F040010120B0EB911F0BD184
:1052A000FFE70398006800690399496A0870039949
:1052B000486A01304862FFE70398FCF741FFFFE7C7
:1052C000FFE70398006C01909DF80400C00790B9B7
:1052D000FFE7019800F0020002280CD0FFE70198D8
:1052E00000F00400042806D0FFE79DF80400000742
:1052F000002807D5FFE703980168486820F4E060BC
:105300004860FFE7039890F83D008DF80B00039884
:10531000006C4007002818D5FFE79DF80B002828EF
:1053200013D1FFE703990020CFF6FF70C8620399FD
:1053300000200863039A202182F83D10039981F828
:105340003E000398FDF752F8FFE704B080BD00006F
:1053500082B0009000980068406900F480610120EC
:10536000B0EB912F1ED1FFE7009801686FF48060C9
:105370004861009900200863009A202182F83D10BE
:10538000009981F83E000099086C40F00400086420
:10539000FFE70099002081F83C00FFE701208DF82D
:1053A000070003E000208DF80700FFE79DF80700E5
:1053B00002B0704780B582B001900198C06A009039
:1053C0000198408D042815D1FFE7019801684868CD
:1053D00020F4806048600198006800690199496A7A
:1053E00008700199486A013048620199488D013876
:1053F0004885ACE00198408D032824D1FFE701984F
:105400000168486820F480604860009804280BD048
:10541000FFE70098022807D0FFE7019801680868B5
:1054200020F480600860FFE7019800680069019936
:10543000496A08700199486A013048620199488DAB
:105440000138488582E00198408D02286ED1FFE73F
:105450000098012804D0FFE70098102807D1FFE743
:1054600001980168086820F4806008601CE00098DA
:10547000042804D0FFE70098022807D1FFE701982D
:105480000168086840F4806008600CE0009810280B
:1054900007D0FFE701980168086840F400700860D1
:1054A00000E0FFE7FFE7FFE7019800680069019966
:1054B000496A08700199486A013048620199488D2B
:1054C000013848850198006800690199496A0870A7
:1054D0000199486A013048620199488D0138488530
:1054E00001980168486820F44070486001992020C4
:1054F00081F83D00019890F83E0040280AD1FFE76E
:105500000199002081F83E00019908630198FCF799
:1055100079FF0AE00199002081F83E0001991220EC
:1055200008630198FCF766FFFFE70EE0019800684A
:1055300000690199496A08700199486A0130486216
:105540000199488D01384885FFE7FFE7FFE702B082
:1055500080BD000080B582B00190019890F83D00B8
:10556000222840F09380FFE70198408D009000983A
:1055700004281BD3FFE70198006800690199496A74
:1055800008700199486A013048620199488D0138D4
:1055900048850198408D032807D1FFE701980168ED
:1055A000486820F480604860FFE76EE00198C06AB8
:1055B000022868D0FFE70098012804D0FFE7009890
:1055C000002860D1FFE7019801F038F8D0BBFFE771
:1055D00001980168086820F48060086001980168FB
:1055E000486820F4E060486001980068006901990B
:1055F000496A08700199486A013048620199488DEA
:10560000013848850199202081F83D00019890F8E3
:105610003E0040280AD1FFE70199002081F83E00B2
:10562000019908630198FCF7EDFE0AE0019900205A
:1056300081F83E000199122008630198FCF7DAFE18
:10564000FFE71FE001980168486820F4E0604860C7
:105650000198006800690199496A08700199486ACF
:10566000013048620199488D013848850199202010
:1056700081F83D000199002081F83E000198FCF777
:105680005FFDFFE700E0FFE7FFE7FFE702B080BD57
:1056900080B582B001900198C06A0090019890F89E
:1056A0003D00212860D1FFE70198408D70B1FFE7F0
:1056B00001980168406A007808610199486A0130E0
:1056C00048620199488D013848854CE000980828C7
:1056D0001ED0FFE7009820281AD0FFE7009810F5A9
:1056E000803F15D0FFE701980168486820F4E0602A
:1056F00048600199112008630199002081F83E005B
:105700000199202081F83D000198FCF777FE29E0FF
:1057100001980168486820F4E060486001980168D9
:10572000086840F40070086001990020086301993E
:10573000202081F83D00019890F83E00402808D1D3
:10574000FFE70199002081F83E000198FCF75EFE1A
:1057500007E00199002081F83E000198FCF74EFE19
:10576000FFE7FFE7FFE700E0FFE702B080BD0000D2
:1057700080B584B00390039890F83D008DF80B003D
:10578000039890F83E008DF80A000398C06A0190D3
:105790000398008D002852D1FFE79DF80B002128C7
:1057A0004DD1FFE7019808281ED0FFE70198202877
:1057B0001AD0FFE7019810F5803F15D0FFE7039856
:1057C0000168486820F4E06048600399112008638C
:1057D0000399002081F83E000399202081F83D00C4
:1057E0000398FCF70BFE29E003980168486820F451
:1057F000E060486003980168086840F40070086041
:105800000399002008630399202081F83D00039844
:1058100090F83E00402808D1FFE70399002081F866
:105820003E000398FCF7F2FD07E00399002081F8A1
:105830003E000398FCF7E2FDFFE7FFE735E09DF847
:105840000B0021280AD0FFE79DF80A0040282AD142
:10585000FFE79DF80B00222825D1FFE70398408D34
:1058600038B9FFE703980168486820F48060486011
:1058700018E0039890F83E00402804D1FFE7039811
:1058800000F05EFA0DE003980168406A0078086154
:105890000399486A013048620399488D0138488568
:1058A000FFE7FFE700E0FFE7FFE704B080BD00008F
:1058B00081B000900098406CC0B2009909680861FE
:1058C0000098406B28B1FFE70098406B806A48B9A8
:1058D000FFE70098806B60B1FFE70098806B806AFB
:1058E00038B1FFE700980168486840F400604860FC
:1058F000FFE701B0704700008FB00E900E9890F84F
:105900003E008DF837000E98C06A0C900E98006B20
:105910000B900E9890F83D00222840F08981FFE717
:105920000E98006D98B9FFE79DF8370040280ED11A
:10593000FFE7FFE700200A900E98006840690A9090
:105940000E98006880690A900A98FFE76FE10E9848
:10595000006DF0B9FFE70E980069B0F5404F18D11F
:10596000FFE7FFE7002009900E9800684069099062
:105970000E980068806909900998FFE70E98016801
:10598000086840F4807008600E99086D0130086561
:105990004CE10E98408DA0B9FFE7FFE7002008908A
:1059A0000E980068406908900E9800688069089019
:1059B0000898FFE70E980168086840F400700860D6
:1059C00030E10E98408D012840F09080FFE70C9860
:1059D00010F5803F36D1FFE70E980168086820F483
:1059E000806008600E98006840680005002814D5A3
:1059F000FFE70E980168086820F480600860FFE700
:105A0000002007900E980068406907900E98006883
:105A1000806907900798FFE713E0FFE700200690F2
:105A20000E980068406906900E980068806906909C
:105A30000698FFE70E980168086840F40070086057
:105A4000FFE752E00C98082834D0FFE70C98202894
:105A500030D0FFE70B98122804D1FFE70C980128FB
:105A600028D1FFE70C9804280FD0FFE70C980228F4
:105A70000BD0FFE70C98102807D0FFE70E980168BD
:105A8000086820F48060086006E00E9801680868E5
:105A900040F480600860FFE7FFE7002005900E9863
:105AA0000068406905900E98006880690590059827
:105AB000FFE719E00E980168086820F4806008602C
:105AC000FFE7002004900E980068406904900E984B
:105AD0000068806904900498FFE70E9801680868E0
